{
	"listen-events-python.sol": {
		"CodiesAlert": {
			"abi": [
				{
					"anonymous": false,
					"inputs": [
						{
							"indexed": true,
							"internalType": "address",
							"name": "addressId",
							"type": "address"
						},
						{
							"indexed": true,
							"internalType": "uint256",
							"name": "_age",
							"type": "uint256"
						},
						{
							"indexed": false,
							"internalType": "string",
							"name": "city",
							"type": "string"
						}
					],
					"name": "showData",
					"type": "event"
				},
				{
					"inputs": [
						{
							"internalType": "address",
							"name": "_addressId",
							"type": "address"
						},
						{
							"internalType": "uint256",
							"name": "_age",
							"type": "uint256"
						},
						{
							"internalType": "string",
							"name": "_city",
							"type": "string"
						}
					],
					"name": "display",
					"outputs": [],
					"stateMutability": "nonpayable",
					"type": "function"
				}
			],
			"devdoc": {
				"kind": "dev",
				"methods": {},
				"version": 1
			},
			"evm": {
				"assembly": "    /* \"listen-events-python.sol\":27:275  contract CodiesAlert {\r... */\n  mstore(0x40, 0x80)\n  callvalue\n  dup1\n  iszero\n  tag_1\n  jumpi\n  0x00\n  dup1\n  revert\ntag_1:\n  pop\n  dataSize(sub_0)\n  dup1\n  dataOffset(sub_0)\n  0x00\n  codecopy\n  0x00\n  return\nstop\n\nsub_0: assembly {\n        /* \"listen-events-python.sol\":27:275  contract CodiesAlert {\r... */\n      mstore(0x40, 0x80)\n      callvalue\n      dup1\n      iszero\n      tag_1\n      jumpi\n      0x00\n      dup1\n      revert\n    tag_1:\n      pop\n      jumpi(tag_2, lt(calldatasize, 0x04))\n      shr(0xe0, calldataload(0x00))\n      dup1\n      0x5984e71e\n      eq\n      tag_3\n      jumpi\n    tag_2:\n      0x00\n      dup1\n      revert\n        /* \"listen-events-python.sol\":139:272  function display(address _addressId, uint _age, string memory _city) public {\r... */\n    tag_3:\n      tag_4\n      0x04\n      dup1\n      calldatasize\n      sub\n      dup2\n      add\n      swap1\n      tag_5\n      swap2\n      swap1\n      tag_6\n      jump\t// in\n    tag_5:\n      tag_7\n      jump\t// in\n    tag_4:\n      stop\n    tag_7:\n        /* \"listen-events-python.sol\":252:256  _age */\n      dup2\n        /* \"listen-events-python.sol\":240:250  _addressId */\n      dup4\n        /* \"listen-events-python.sol\":231:264  showData(_addressId, _age, _city) */\n      0xffffffffffffffffffffffffffffffffffffffff\n      and\n      0x9e67fc8553f3975e121e20233aa19846bc7b1658a99349a0a35df948d328795a\n        /* \"listen-events-python.sol\":258:263  _city */\n      dup4\n        /* \"listen-events-python.sol\":231:264  showData(_addressId, _age, _city) */\n      mload(0x40)\n      tag_9\n      swap2\n      swap1\n      tag_10\n      jump\t// in\n    tag_9:\n      mload(0x40)\n      dup1\n      swap2\n      sub\n      swap1\n      log3\n        /* \"listen-events-python.sol\":139:272  function display(address _addressId, uint _age, string memory _city) public {\r... */\n      pop\n      pop\n      pop\n      jump\t// out\n        /* \"#utility.yul\":7:351   */\n    tag_12:\n      0x00\n        /* \"#utility.yul\":110:175   */\n      tag_14\n        /* \"#utility.yul\":125:174   */\n      tag_15\n        /* \"#utility.yul\":167:173   */\n      dup5\n        /* \"#utility.yul\":125:174   */\n      tag_16\n      jump\t// in\n    tag_15:\n        /* \"#utility.yul\":110:175   */\n      tag_17\n      jump\t// in\n    tag_14:\n        /* \"#utility.yul\":101:175   */\n      swap1\n      pop\n        /* \"#utility.yul\":198:204   */\n      dup3\n        /* \"#utility.yul\":191:196   */\n      dup2\n        /* \"#utility.yul\":184:205   */\n      mstore\n        /* \"#utility.yul\":236:240   */\n      0x20\n        /* \"#utility.yul\":229:234   */\n      dup2\n        /* \"#utility.yul\":225:241   */\n      add\n        /* \"#utility.yul\":274:277   */\n      dup5\n        /* \"#utility.yul\":265:271   */\n      dup5\n        /* \"#utility.yul\":260:263   */\n      dup5\n        /* \"#utility.yul\":256:272   */\n      add\n        /* \"#utility.yul\":253:278   */\n      gt\n        /* \"#utility.yul\":250:252   */\n      iszero\n      tag_18\n      jumpi\n        /* \"#utility.yul\":291:292   */\n      0x00\n        /* \"#utility.yul\":288:289   */\n      dup1\n        /* \"#utility.yul\":281:293   */\n      revert\n        /* \"#utility.yul\":250:252   */\n    tag_18:\n        /* \"#utility.yul\":304:345   */\n      tag_19\n        /* \"#utility.yul\":338:344   */\n      dup5\n        /* \"#utility.yul\":333:336   */\n      dup3\n        /* \"#utility.yul\":328:331   */\n      dup6\n        /* \"#utility.yul\":304:345   */\n      tag_20\n      jump\t// in\n    tag_19:\n        /* \"#utility.yul\":91:351   */\n      pop\n      swap4\n      swap3\n      pop\n      pop\n      pop\n      jump\t// out\n        /* \"#utility.yul\":357:496   */\n    tag_21:\n      0x00\n        /* \"#utility.yul\":441:447   */\n      dup2\n        /* \"#utility.yul\":428:448   */\n      calldataload\n        /* \"#utility.yul\":419:448   */\n      swap1\n      pop\n        /* \"#utility.yul\":457:490   */\n      tag_23\n        /* \"#utility.yul\":484:489   */\n      dup2\n        /* \"#utility.yul\":457:490   */\n      tag_24\n      jump\t// in\n    tag_23:\n        /* \"#utility.yul\":409:496   */\n      swap3\n      swap2\n      pop\n      pop\n      jump\t// out\n        /* \"#utility.yul\":516:789   */\n    tag_25:\n      0x00\n        /* \"#utility.yul\":621:624   */\n      dup3\n        /* \"#utility.yul\":614:618   */\n      0x1f\n        /* \"#utility.yul\":606:612   */\n      dup4\n        /* \"#utility.yul\":602:619   */\n      add\n        /* \"#utility.yul\":598:625   */\n      slt\n        /* \"#utility.yul\":588:590   */\n      tag_27\n      jumpi\n        /* \"#utility.yul\":639:640   */\n      0x00\n        /* \"#utility.yul\":636:637   */\n      dup1\n        /* \"#utility.yul\":629:641   */\n      revert\n        /* \"#utility.yul\":588:590   */\n    tag_27:\n        /* \"#utility.yul\":679:685   */\n      dup2\n        /* \"#utility.yul\":666:686   */\n      calldataload\n        /* \"#utility.yul\":704:783   */\n      tag_28\n        /* \"#utility.yul\":779:782   */\n      dup5\n        /* \"#utility.yul\":771:777   */\n      dup3\n        /* \"#utility.yul\":764:768   */\n      0x20\n        /* \"#utility.yul\":756:762   */\n      dup7\n        /* \"#utility.yul\":752:769   */\n      add\n        /* \"#utility.yul\":704:783   */\n      tag_12\n      jump\t// in\n    tag_28:\n        /* \"#utility.yul\":695:783   */\n      swap2\n      pop\n        /* \"#utility.yul\":578:789   */\n      pop\n      swap3\n      swap2\n      pop\n      pop\n      jump\t// out\n        /* \"#utility.yul\":795:934   */\n    tag_29:\n      0x00\n        /* \"#utility.yul\":879:885   */\n      dup2\n        /* \"#utility.yul\":866:886   */\n      calldataload\n        /* \"#utility.yul\":857:886   */\n      swap1\n      pop\n        /* \"#utility.yul\":895:928   */\n      tag_31\n        /* \"#utility.yul\":922:927   */\n      dup2\n        /* \"#utility.yul\":895:928   */\n      tag_32\n      jump\t// in\n    tag_31:\n        /* \"#utility.yul\":847:934   */\n      swap3\n      swap2\n      pop\n      pop\n      jump\t// out\n        /* \"#utility.yul\":940:1605   */\n    tag_6:\n      0x00\n      dup1\n      0x00\n        /* \"#utility.yul\":1092:1094   */\n      0x60\n        /* \"#utility.yul\":1080:1089   */\n      dup5\n        /* \"#utility.yul\":1071:1078   */\n      dup7\n        /* \"#utility.yul\":1067:1090   */\n      sub\n        /* \"#utility.yul\":1063:1095   */\n      slt\n        /* \"#utility.yul\":1060:1062   */\n      iszero\n      tag_34\n      jumpi\n        /* \"#utility.yul\":1108:1109   */\n      0x00\n        /* \"#utility.yul\":1105:1106   */\n      dup1\n        /* \"#utility.yul\":1098:1110   */\n      revert\n        /* \"#utility.yul\":1060:1062   */\n    tag_34:\n        /* \"#utility.yul\":1151:1152   */\n      0x00\n        /* \"#utility.yul\":1176:1229   */\n      tag_35\n        /* \"#utility.yul\":1221:1228   */\n      dup7\n        /* \"#utility.yul\":1212:1218   */\n      dup3\n        /* \"#utility.yul\":1201:1210   */\n      dup8\n        /* \"#utility.yul\":1197:1219   */\n      add\n        /* \"#utility.yul\":1176:1229   */\n      tag_21\n      jump\t// in\n    tag_35:\n        /* \"#utility.yul\":1166:1229   */\n      swap4\n      pop\n        /* \"#utility.yul\":1122:1239   */\n      pop\n        /* \"#utility.yul\":1278:1280   */\n      0x20\n        /* \"#utility.yul\":1304:1357   */\n      tag_36\n        /* \"#utility.yul\":1349:1356   */\n      dup7\n        /* \"#utility.yul\":1340:1346   */\n      dup3\n        /* \"#utility.yul\":1329:1338   */\n      dup8\n        /* \"#utility.yul\":1325:1347   */\n      add\n        /* \"#utility.yul\":1304:1357   */\n      tag_29\n      jump\t// in\n    tag_36:\n        /* \"#utility.yul\":1294:1357   */\n      swap3\n      pop\n        /* \"#utility.yul\":1249:1367   */\n      pop\n        /* \"#utility.yul\":1434:1436   */\n      0x40\n        /* \"#utility.yul\":1423:1432   */\n      dup5\n        /* \"#utility.yul\":1419:1437   */\n      add\n        /* \"#utility.yul\":1406:1438   */\n      calldataload\n        /* \"#utility.yul\":1465:1483   */\n      0xffffffffffffffff\n        /* \"#utility.yul\":1457:1463   */\n      dup2\n        /* \"#utility.yul\":1454:1484   */\n      gt\n        /* \"#utility.yul\":1451:1453   */\n      iszero\n      tag_37\n      jumpi\n        /* \"#utility.yul\":1497:1498   */\n      0x00\n        /* \"#utility.yul\":1494:1495   */\n      dup1\n        /* \"#utility.yul\":1487:1499   */\n      revert\n        /* \"#utility.yul\":1451:1453   */\n    tag_37:\n        /* \"#utility.yul\":1525:1588   */\n      tag_38\n        /* \"#utility.yul\":1580:1587   */\n      dup7\n        /* \"#utility.yul\":1571:1577   */\n      dup3\n        /* \"#utility.yul\":1560:1569   */\n      dup8\n        /* \"#utility.yul\":1556:1578   */\n      add\n        /* \"#utility.yul\":1525:1588   */\n      tag_25\n      jump\t// in\n    tag_38:\n        /* \"#utility.yul\":1515:1588   */\n      swap2\n      pop\n        /* \"#utility.yul\":1377:1598   */\n      pop\n        /* \"#utility.yul\":1050:1605   */\n      swap3\n      pop\n      swap3\n      pop\n      swap3\n      jump\t// out\n        /* \"#utility.yul\":1611:1975   */\n    tag_39:\n      0x00\n        /* \"#utility.yul\":1727:1766   */\n      tag_41\n        /* \"#utility.yul\":1760:1765   */\n      dup3\n        /* \"#utility.yul\":1727:1766   */\n      tag_42\n      jump\t// in\n    tag_41:\n        /* \"#utility.yul\":1782:1853   */\n      tag_43\n        /* \"#utility.yul\":1846:1852   */\n      dup2\n        /* \"#utility.yul\":1841:1844   */\n      dup6\n        /* \"#utility.yul\":1782:1853   */\n      tag_44\n      jump\t// in\n    tag_43:\n        /* \"#utility.yul\":1775:1853   */\n      swap4\n      pop\n        /* \"#utility.yul\":1862:1914   */\n      tag_45\n        /* \"#utility.yul\":1907:1913   */\n      dup2\n        /* \"#utility.yul\":1902:1905   */\n      dup6\n        /* \"#utility.yul\":1895:1899   */\n      0x20\n        /* \"#utility.yul\":1888:1893   */\n      dup7\n        /* \"#utility.yul\":1884:1900   */\n      add\n        /* \"#utility.yul\":1862:1914   */\n      tag_46\n      jump\t// in\n    tag_45:\n        /* \"#utility.yul\":1939:1968   */\n      tag_47\n        /* \"#utility.yul\":1961:1967   */\n      dup2\n        /* \"#utility.yul\":1939:1968   */\n      tag_48\n      jump\t// in\n    tag_47:\n        /* \"#utility.yul\":1934:1937   */\n      dup5\n        /* \"#utility.yul\":1930:1969   */\n      add\n        /* \"#utility.yul\":1923:1969   */\n      swap2\n      pop\n        /* \"#utility.yul\":1703:1975   */\n      pop\n      swap3\n      swap2\n      pop\n      pop\n      jump\t// out\n        /* \"#utility.yul\":1981:2294   */\n    tag_10:\n      0x00\n        /* \"#utility.yul\":2132:2134   */\n      0x20\n        /* \"#utility.yul\":2121:2130   */\n      dup3\n        /* \"#utility.yul\":2117:2135   */\n      add\n        /* \"#utility.yul\":2109:2135   */\n      swap1\n      pop\n        /* \"#utility.yul\":2181:2190   */\n      dup2\n        /* \"#utility.yul\":2175:2179   */\n      dup2\n        /* \"#utility.yul\":2171:2191   */\n      sub\n        /* \"#utility.yul\":2167:2168   */\n      0x00\n        /* \"#utility.yul\":2156:2165   */\n      dup4\n        /* \"#utility.yul\":2152:2169   */\n      add\n        /* \"#utility.yul\":2145:2192   */\n      mstore\n        /* \"#utility.yul\":2209:2287   */\n      tag_50\n        /* \"#utility.yul\":2282:2286   */\n      dup2\n        /* \"#utility.yul\":2273:2279   */\n      dup5\n        /* \"#utility.yul\":2209:2287   */\n      tag_39\n      jump\t// in\n    tag_50:\n        /* \"#utility.yul\":2201:2287   */\n      swap1\n      pop\n        /* \"#utility.yul\":2099:2294   */\n      swap3\n      swap2\n      pop\n      pop\n      jump\t// out\n        /* \"#utility.yul\":2300:2583   */\n    tag_17:\n      0x00\n        /* \"#utility.yul\":2366:2368   */\n      0x40\n        /* \"#utility.yul\":2360:2369   */\n      mload\n        /* \"#utility.yul\":2350:2369   */\n      swap1\n      pop\n        /* \"#utility.yul\":2408:2412   */\n      dup2\n        /* \"#utility.yul\":2400:2406   */\n      dup2\n        /* \"#utility.yul\":2396:2413   */\n      add\n        /* \"#utility.yul\":2515:2521   */\n      dup2\n        /* \"#utility.yul\":2503:2513   */\n      dup2\n        /* \"#utility.yul\":2500:2522   */\n      lt\n        /* \"#utility.yul\":2479:2497   */\n      0xffffffffffffffff\n        /* \"#utility.yul\":2467:2477   */\n      dup3\n        /* \"#utility.yul\":2464:2498   */\n      gt\n        /* \"#utility.yul\":2461:2523   */\n      or\n        /* \"#utility.yul\":2458:2460   */\n      iszero\n      tag_52\n      jumpi\n        /* \"#utility.yul\":2526:2544   */\n      tag_53\n      tag_54\n      jump\t// in\n    tag_53:\n        /* \"#utility.yul\":2458:2460   */\n    tag_52:\n        /* \"#utility.yul\":2566:2576   */\n      dup1\n        /* \"#utility.yul\":2562:2564   */\n      0x40\n        /* \"#utility.yul\":2555:2577   */\n      mstore\n        /* \"#utility.yul\":2340:2583   */\n      pop\n      swap2\n      swap1\n      pop\n      jump\t// out\n        /* \"#utility.yul\":2589:2921   */\n    tag_16:\n      0x00\n        /* \"#utility.yul\":2741:2759   */\n      0xffffffffffffffff\n        /* \"#utility.yul\":2733:2739   */\n      dup3\n        /* \"#utility.yul\":2730:2760   */\n      gt\n        /* \"#utility.yul\":2727:2729   */\n      iszero\n      tag_56\n      jumpi\n        /* \"#utility.yul\":2763:2781   */\n      tag_57\n      tag_54\n      jump\t// in\n    tag_57:\n        /* \"#utility.yul\":2727:2729   */\n    tag_56:\n        /* \"#utility.yul\":2848:2852   */\n      0x1f\n        /* \"#utility.yul\":2844:2853   */\n      not\n        /* \"#utility.yul\":2837:2841   */\n      0x1f\n        /* \"#utility.yul\":2829:2835   */\n      dup4\n        /* \"#utility.yul\":2825:2842   */\n      add\n        /* \"#utility.yul\":2821:2854   */\n      and\n        /* \"#utility.yul\":2813:2854   */\n      swap1\n      pop\n        /* \"#utility.yul\":2909:2913   */\n      0x20\n        /* \"#utility.yul\":2903:2907   */\n      dup2\n        /* \"#utility.yul\":2899:2914   */\n      add\n        /* \"#utility.yul\":2891:2914   */\n      swap1\n      pop\n        /* \"#utility.yul\":2656:2921   */\n      swap2\n      swap1\n      pop\n      jump\t// out\n        /* \"#utility.yul\":2927:3026   */\n    tag_42:\n      0x00\n        /* \"#utility.yul\":3013:3018   */\n      dup2\n        /* \"#utility.yul\":3007:3019   */\n      mload\n        /* \"#utility.yul\":2997:3019   */\n      swap1\n      pop\n        /* \"#utility.yul\":2986:3026   */\n      swap2\n      swap1\n      pop\n      jump\t// out\n        /* \"#utility.yul\":3032:3201   */\n    tag_44:\n      0x00\n        /* \"#utility.yul\":3150:3156   */\n      dup3\n        /* \"#utility.yul\":3145:3148   */\n      dup3\n        /* \"#utility.yul\":3138:3157   */\n      mstore\n        /* \"#utility.yul\":3190:3194   */\n      0x20\n        /* \"#utility.yul\":3185:3188   */\n      dup3\n        /* \"#utility.yul\":3181:3195   */\n      add\n        /* \"#utility.yul\":3166:3195   */\n      swap1\n      pop\n        /* \"#utility.yul\":3128:3201   */\n      swap3\n      swap2\n      pop\n      pop\n      jump\t// out\n        /* \"#utility.yul\":3207:3303   */\n    tag_60:\n      0x00\n        /* \"#utility.yul\":3273:3297   */\n      tag_62\n        /* \"#utility.yul\":3291:3296   */\n      dup3\n        /* \"#utility.yul\":3273:3297   */\n      tag_63\n      jump\t// in\n    tag_62:\n        /* \"#utility.yul\":3262:3297   */\n      swap1\n      pop\n        /* \"#utility.yul\":3252:3303   */\n      swap2\n      swap1\n      pop\n      jump\t// out\n        /* \"#utility.yul\":3309:3435   */\n    tag_63:\n      0x00\n        /* \"#utility.yul\":3386:3428   */\n      0xffffffffffffffffffffffffffffffffffffffff\n        /* \"#utility.yul\":3379:3384   */\n      dup3\n        /* \"#utility.yul\":3375:3429   */\n      and\n        /* \"#utility.yul\":3364:3429   */\n      swap1\n      pop\n        /* \"#utility.yul\":3354:3435   */\n      swap2\n      swap1\n      pop\n      jump\t// out\n        /* \"#utility.yul\":3441:3518   */\n    tag_65:\n      0x00\n        /* \"#utility.yul\":3507:3512   */\n      dup2\n        /* \"#utility.yul\":3496:3512   */\n      swap1\n      pop\n        /* \"#utility.yul\":3486:3518   */\n      swap2\n      swap1\n      pop\n      jump\t// out\n        /* \"#utility.yul\":3524:3678   */\n    tag_20:\n        /* \"#utility.yul\":3608:3614   */\n      dup3\n        /* \"#utility.yul\":3603:3606   */\n      dup2\n        /* \"#utility.yul\":3598:3601   */\n      dup4\n        /* \"#utility.yul\":3585:3615   */\n      calldatacopy\n        /* \"#utility.yul\":3670:3671   */\n      0x00\n        /* \"#utility.yul\":3661:3667   */\n      dup4\n        /* \"#utility.yul\":3656:3659   */\n      dup4\n        /* \"#utility.yul\":3652:3668   */\n      add\n        /* \"#utility.yul\":3645:3672   */\n      mstore\n        /* \"#utility.yul\":3575:3678   */\n      pop\n      pop\n      pop\n      jump\t// out\n        /* \"#utility.yul\":3684:3991   */\n    tag_46:\n        /* \"#utility.yul\":3752:3753   */\n      0x00\n        /* \"#utility.yul\":3762:3875   */\n    tag_69:\n        /* \"#utility.yul\":3776:3782   */\n      dup4\n        /* \"#utility.yul\":3773:3774   */\n      dup2\n        /* \"#utility.yul\":3770:3783   */\n      lt\n        /* \"#utility.yul\":3762:3875   */\n      iszero\n      tag_71\n      jumpi\n        /* \"#utility.yul\":3861:3862   */\n      dup1\n        /* \"#utility.yul\":3856:3859   */\n      dup3\n        /* \"#utility.yul\":3852:3863   */\n      add\n        /* \"#utility.yul\":3846:3864   */\n      mload\n        /* \"#utility.yul\":3842:3843   */\n      dup2\n        /* \"#utility.yul\":3837:3840   */\n      dup5\n        /* \"#utility.yul\":3833:3844   */\n      add\n        /* \"#utility.yul\":3826:3865   */\n      mstore\n        /* \"#utility.yul\":3798:3800   */\n      0x20\n        /* \"#utility.yul\":3795:3796   */\n      dup2\n        /* \"#utility.yul\":3791:3801   */\n      add\n        /* \"#utility.yul\":3786:3801   */\n      swap1\n      pop\n        /* \"#utility.yul\":3762:3875   */\n      jump(tag_69)\n    tag_71:\n        /* \"#utility.yul\":3893:3899   */\n      dup4\n        /* \"#utility.yul\":3890:3891   */\n      dup2\n        /* \"#utility.yul\":3887:3900   */\n      gt\n        /* \"#utility.yul\":3884:3886   */\n      iszero\n      tag_72\n      jumpi\n        /* \"#utility.yul\":3973:3974   */\n      0x00\n        /* \"#utility.yul\":3964:3970   */\n      dup5\n        /* \"#utility.yul\":3959:3962   */\n      dup5\n        /* \"#utility.yul\":3955:3971   */\n      add\n        /* \"#utility.yul\":3948:3975   */\n      mstore\n        /* \"#utility.yul\":3884:3886   */\n    tag_72:\n        /* \"#utility.yul\":3733:3991   */\n      pop\n      pop\n      pop\n      pop\n      jump\t// out\n        /* \"#utility.yul\":3997:4177   */\n    tag_54:\n        /* \"#utility.yul\":4045:4122   */\n      0x4e487b7100000000000000000000000000000000000000000000000000000000\n        /* \"#utility.yul\":4042:4043   */\n      0x00\n        /* \"#utility.yul\":4035:4123   */\n      mstore\n        /* \"#utility.yul\":4142:4146   */\n      0x41\n        /* \"#utility.yul\":4139:4140   */\n      0x04\n        /* \"#utility.yul\":4132:4147   */\n      mstore\n        /* \"#utility.yul\":4166:4170   */\n      0x24\n        /* \"#utility.yul\":4163:4164   */\n      0x00\n        /* \"#utility.yul\":4156:4171   */\n      revert\n        /* \"#utility.yul\":4183:4285   */\n    tag_48:\n      0x00\n        /* \"#utility.yul\":4275:4277   */\n      0x1f\n        /* \"#utility.yul\":4271:4278   */\n      not\n        /* \"#utility.yul\":4266:4268   */\n      0x1f\n        /* \"#utility.yul\":4259:4264   */\n      dup4\n        /* \"#utility.yul\":4255:4269   */\n      add\n        /* \"#utility.yul\":4251:4279   */\n      and\n        /* \"#utility.yul\":4241:4279   */\n      swap1\n      pop\n        /* \"#utility.yul\":4231:4285   */\n      swap2\n      swap1\n      pop\n      jump\t// out\n        /* \"#utility.yul\":4291:4413   */\n    tag_24:\n        /* \"#utility.yul\":4364:4388   */\n      tag_76\n        /* \"#utility.yul\":4382:4387   */\n      dup2\n        /* \"#utility.yul\":4364:4388   */\n      tag_60\n      jump\t// in\n    tag_76:\n        /* \"#utility.yul\":4357:4362   */\n      dup2\n        /* \"#utility.yul\":4354:4389   */\n      eq\n        /* \"#utility.yul\":4344:4346   */\n      tag_77\n      jumpi\n        /* \"#utility.yul\":4403:4404   */\n      0x00\n        /* \"#utility.yul\":4400:4401   */\n      dup1\n        /* \"#utility.yul\":4393:4405   */\n      revert\n        /* \"#utility.yul\":4344:4346   */\n    tag_77:\n        /* \"#utility.yul\":4334:4413   */\n      pop\n      jump\t// out\n        /* \"#utility.yul\":4419:4541   */\n    tag_32:\n        /* \"#utility.yul\":4492:4516   */\n      tag_79\n        /* \"#utility.yul\":4510:4515   */\n      dup2\n        /* \"#utility.yul\":4492:4516   */\n      tag_65\n      jump\t// in\n    tag_79:\n        /* \"#utility.yul\":4485:4490   */\n      dup2\n        /* \"#utility.yul\":4482:4517   */\n      eq\n        /* \"#utility.yul\":4472:4474   */\n      tag_80\n      jumpi\n        /* \"#utility.yul\":4531:4532   */\n      0x00\n        /* \"#utility.yul\":4528:4529   */\n      dup1\n        /* \"#utility.yul\":4521:4533   */\n      revert\n        /* \"#utility.yul\":4472:4474   */\n    tag_80:\n        /* \"#utility.yul\":4462:4541   */\n      pop\n      jump\t// out\n\n    auxdata: 0xa2646970667358221220b983f214b0aad441c02e5a43ccd5fd9ac056b35abfa38dfd628d12512551d03d64736f6c63430008000033\n}\n",
				"bytecode": {
					"linkReferences": {},
					"object": "608060405234801561001057600080fd5b50610393806100206000396000f3fe608060405234801561001057600080fd5b506004361061002b5760003560e01c80635984e71e14610030575b600080fd5b61004a60048036038101906100459190610132565b61004c565b005b818373ffffffffffffffffffffffffffffffffffffffff167f9e67fc8553f3975e121e20233aa19846bc7b1658a99349a0a35df948d328795a8360405161009391906101d2565b60405180910390a3505050565b60006100b36100ae84610225565b6101f4565b9050828152602081018484840111156100cb57600080fd5b6100d68482856102ad565b509392505050565b6000813590506100ed8161032f565b92915050565b600082601f83011261010457600080fd5b81356101148482602086016100a0565b91505092915050565b60008135905061012c81610346565b92915050565b60008060006060848603121561014757600080fd5b6000610155868287016100de565b93505060206101668682870161011d565b925050604084013567ffffffffffffffff81111561018357600080fd5b61018f868287016100f3565b9150509250925092565b60006101a482610255565b6101ae8185610260565b93506101be8185602086016102bc565b6101c78161031e565b840191505092915050565b600060208201905081810360008301526101ec8184610199565b905092915050565b6000604051905081810181811067ffffffffffffffff8211171561021b5761021a6102ef565b5b8060405250919050565b600067ffffffffffffffff8211156102405761023f6102ef565b5b601f19601f8301169050602081019050919050565b600081519050919050565b600082825260208201905092915050565b600061027c82610283565b9050919050565b600073ffffffffffffffffffffffffffffffffffffffff82169050919050565b6000819050919050565b82818337600083830152505050565b60005b838110156102da5780820151818401526020810190506102bf565b838111156102e9576000848401525b50505050565b7f4e487b7100000000000000000000000000000000000000000000000000000000600052604160045260246000fd5b6000601f19601f8301169050919050565b61033881610271565b811461034357600080fd5b50565b61034f816102a3565b811461035a57600080fd5b5056fea2646970667358221220b983f214b0aad441c02e5a43ccd5fd9ac056b35abfa38dfd628d12512551d03d64736f6c63430008000033",
					"opcodes": "PUSH1 0x80 PUSH1 0x40 MSTORE CALLVALUE DUP1 ISZERO PUSH2 0x10 JUMPI PUSH1 0x0 DUP1 REVERT JUMPDEST POP PUSH2 0x393 DUP1 PUSH2 0x20 PUSH1 0x0 CODECOPY PUSH1 0x0 RETURN INVALID PUSH1 0x80 PUSH1 0x40 MSTORE CALLVALUE DUP1 ISZERO PUSH2 0x10 JUMPI PUSH1 0x0 DUP1 REVERT JUMPDEST POP PUSH1 0x4 CALLDATASIZE LT PUSH2 0x2B JUMPI PUSH1 0x0 CALLDATALOAD PUSH1 0xE0 SHR DUP1 PUSH4 0x5984E71E EQ PUSH2 0x30 JUMPI JUMPDEST PUSH1 0x0 DUP1 REVERT JUMPDEST PUSH2 0x4A PUSH1 0x4 DUP1 CALLDATASIZE SUB DUP2 ADD SWAP1 PUSH2 0x45 SWAP2 SWAP1 PUSH2 0x132 JUMP JUMPDEST PUSH2 0x4C JUMP JUMPDEST STOP JUMPDEST DUP2 DUP4 PUSH20 0xFFFFFFFFFFFFFFFFFFFFFFFFFFFFFFFFFFFFFFFF AND PUSH32 0x9E67FC8553F3975E121E20233AA19846BC7B1658A99349A0A35DF948D328795A DUP4 PUSH1 0x40 MLOAD PUSH2 0x93 SWAP2 SWAP1 PUSH2 0x1D2 JUMP JUMPDEST PUSH1 0x40 MLOAD DUP1 SWAP2 SUB SWAP1 LOG3 POP POP POP JUMP JUMPDEST PUSH1 0x0 PUSH2 0xB3 PUSH2 0xAE DUP5 PUSH2 0x225 JUMP JUMPDEST PUSH2 0x1F4 JUMP JUMPDEST SWAP1 POP DUP3 DUP2 MSTORE PUSH1 0x20 DUP2 ADD DUP5 DUP5 DUP5 ADD GT ISZERO PUSH2 0xCB JUMPI PUSH1 0x0 DUP1 REVERT JUMPDEST PUSH2 0xD6 DUP5 DUP3 DUP6 PUSH2 0x2AD JUMP JUMPDEST POP SWAP4 SWAP3 POP POP POP JUMP JUMPDEST PUSH1 0x0 DUP2 CALLDATALOAD SWAP1 POP PUSH2 0xED DUP2 PUSH2 0x32F JUMP JUMPDEST SWAP3 SWAP2 POP POP JUMP JUMPDEST PUSH1 0x0 DUP3 PUSH1 0x1F DUP4 ADD SLT PUSH2 0x104 JUMPI PUSH1 0x0 DUP1 REVERT JUMPDEST DUP2 CALLDATALOAD PUSH2 0x114 DUP5 DUP3 PUSH1 0x20 DUP7 ADD PUSH2 0xA0 JUMP JUMPDEST SWAP2 POP POP SWAP3 SWAP2 POP POP JUMP JUMPDEST PUSH1 0x0 DUP2 CALLDATALOAD SWAP1 POP PUSH2 0x12C DUP2 PUSH2 0x346 JUMP JUMPDEST SWAP3 SWAP2 POP POP JUMP JUMPDEST PUSH1 0x0 DUP1 PUSH1 0x0 PUSH1 0x60 DUP5 DUP7 SUB SLT ISZERO PUSH2 0x147 JUMPI PUSH1 0x0 DUP1 REVERT JUMPDEST PUSH1 0x0 PUSH2 0x155 DUP7 DUP3 DUP8 ADD PUSH2 0xDE JUMP JUMPDEST SWAP4 POP POP PUSH1 0x20 PUSH2 0x166 DUP7 DUP3 DUP8 ADD PUSH2 0x11D JUMP JUMPDEST SWAP3 POP POP PUSH1 0x40 DUP5 ADD CALLDATALOAD PUSH8 0xFFFFFFFFFFFFFFFF DUP2 GT ISZERO PUSH2 0x183 JUMPI PUSH1 0x0 DUP1 REVERT JUMPDEST PUSH2 0x18F DUP7 DUP3 DUP8 ADD PUSH2 0xF3 JUMP JUMPDEST SWAP2 POP POP SWAP3 POP SWAP3 POP SWAP3 JUMP JUMPDEST PUSH1 0x0 PUSH2 0x1A4 DUP3 PUSH2 0x255 JUMP JUMPDEST PUSH2 0x1AE DUP2 DUP6 PUSH2 0x260 JUMP JUMPDEST SWAP4 POP PUSH2 0x1BE DUP2 DUP6 PUSH1 0x20 DUP7 ADD PUSH2 0x2BC JUMP JUMPDEST PUSH2 0x1C7 DUP2 PUSH2 0x31E JUMP JUMPDEST DUP5 ADD SWAP2 POP POP SWAP3 SWAP2 POP POP JUMP JUMPDEST PUSH1 0x0 PUSH1 0x20 DUP3 ADD SWAP1 POP DUP2 DUP2 SUB PUSH1 0x0 DUP4 ADD MSTORE PUSH2 0x1EC DUP2 DUP5 PUSH2 0x199 JUMP JUMPDEST SWAP1 POP SWAP3 SWAP2 POP POP JUMP JUMPDEST PUSH1 0x0 PUSH1 0x40 MLOAD SWAP1 POP DUP2 DUP2 ADD DUP2 DUP2 LT PUSH8 0xFFFFFFFFFFFFFFFF DUP3 GT OR ISZERO PUSH2 0x21B JUMPI PUSH2 0x21A PUSH2 0x2EF JUMP JUMPDEST JUMPDEST DUP1 PUSH1 0x40 MSTORE POP SWAP2 SWAP1 POP JUMP JUMPDEST PUSH1 0x0 PUSH8 0xFFFFFFFFFFFFFFFF DUP3 GT ISZERO PUSH2 0x240 JUMPI PUSH2 0x23F PUSH2 0x2EF JUMP JUMPDEST JUMPDEST PUSH1 0x1F NOT PUSH1 0x1F DUP4 ADD AND SWAP1 POP PUSH1 0x20 DUP2 ADD SWAP1 POP SWAP2 SWAP1 POP JUMP JUMPDEST PUSH1 0x0 DUP2 MLOAD SWAP1 POP SWAP2 SWAP1 POP JUMP JUMPDEST PUSH1 0x0 DUP3 DUP3 MSTORE PUSH1 0x20 DUP3 ADD SWAP1 POP SWAP3 SWAP2 POP POP JUMP JUMPDEST PUSH1 0x0 PUSH2 0x27C DUP3 PUSH2 0x283 JUMP JUMPDEST SWAP1 POP SWAP2 SWAP1 POP JUMP JUMPDEST PUSH1 0x0 PUSH20 0xFFFFFFFFFFFFFFFFFFFFFFFFFFFFFFFFFFFFFFFF DUP3 AND SWAP1 POP SWAP2 SWAP1 POP JUMP JUMPDEST PUSH1 0x0 DUP2 SWAP1 POP SWAP2 SWAP1 POP JUMP JUMPDEST DUP3 DUP2 DUP4 CALLDATACOPY PUSH1 0x0 DUP4 DUP4 ADD MSTORE POP POP POP JUMP JUMPDEST PUSH1 0x0 JUMPDEST DUP4 DUP2 LT ISZERO PUSH2 0x2DA JUMPI DUP1 DUP3 ADD MLOAD DUP2 DUP5 ADD MSTORE PUSH1 0x20 DUP2 ADD SWAP1 POP PUSH2 0x2BF JUMP JUMPDEST DUP4 DUP2 GT ISZERO PUSH2 0x2E9 JUMPI PUSH1 0x0 DUP5 DUP5 ADD MSTORE JUMPDEST POP POP POP POP JUMP JUMPDEST PUSH32 0x4E487B7100000000000000000000000000000000000000000000000000000000 PUSH1 0x0 MSTORE PUSH1 0x41 PUSH1 0x4 MSTORE PUSH1 0x24 PUSH1 0x0 REVERT JUMPDEST PUSH1 0x0 PUSH1 0x1F NOT PUSH1 0x1F DUP4 ADD AND SWAP1 POP SWAP2 SWAP1 POP JUMP JUMPDEST PUSH2 0x338 DUP2 PUSH2 0x271 JUMP JUMPDEST DUP2 EQ PUSH2 0x343 JUMPI PUSH1 0x0 DUP1 REVERT JUMPDEST POP JUMP JUMPDEST PUSH2 0x34F DUP2 PUSH2 0x2A3 JUMP JUMPDEST DUP2 EQ PUSH2 0x35A JUMPI PUSH1 0x0 DUP1 REVERT JUMPDEST POP JUMP INVALID LOG2 PUSH5 0x6970667358 0x22 SLT KECCAK256 0xB9 DUP4 CALLCODE EQ 0xB0 0xAA 0xD4 COINBASE 0xC0 0x2E GAS NUMBER 0xCC 0xD5 REVERT SWAP11 0xC0 JUMP 0xB3 GAS 0xBF LOG3 DUP14 REVERT PUSH3 0x8D1251 0x25 MLOAD 0xD0 RETURNDATASIZE PUSH5 0x736F6C6343 STOP ADDMOD STOP STOP CALLER "
				},
				"gasEstimates": {
					"creation": {
						"codeDepositCost": "183000",
						"executionCost": "226",
						"totalCost": "183226"
					},
					"external": {
						"display(address,uint256,string)": "infinite"
					}
				},
				"methodIdentifiers": {
					"display(address,uint256,string)": "5984e71e"
				}
			},
			"storageLayout": {
				"storage": [],
				"types": null
			},
			"userdoc": {
				"kind": "user",
				"methods": {},
				"version": 1
			}
		}
	}
}