{
	"example-event.sol": {
		"eventExample": {
			"abi": [
				{
					"constant": true,
					"inputs": [],
					"name": "value",
					"outputs": [
						{
							"name": "",
							"type": "uint256"
						}
					],
					"payable": false,
					"stateMutability": "view",
					"type": "function"
				},
				{
					"constant": false,
					"inputs": [
						{
							"name": "_a",
							"type": "uint256"
						},
						{
							"name": "_b",
							"type": "uint256"
						}
					],
					"name": "getValue",
					"outputs": [],
					"payable": false,
					"stateMutability": "nonpayable",
					"type": "function"
				},
				{
					"anonymous": false,
					"inputs": [
						{
							"indexed": false,
							"name": "owner",
							"type": "address"
						}
					],
					"name": "Increment",
					"type": "event"
				}
			],
			"devdoc": {
				"methods": {}
			},
			"evm": {
				"assembly": "    /* \"example-event.sol\":113:445  contract eventExample {\r... */\n  mstore(0x40, 0x60)\n    /* \"example-event.sol\":202:203  0 */\n  0x0\n    /* \"example-event.sol\":179:203  uint256 public value = 0 */\n  dup1\n  sstore\n    /* \"example-event.sol\":113:445  contract eventExample {\r... */\n  jumpi(tag_1, iszero(callvalue))\n  0x0\n  dup1\n  revert\ntag_1:\n  dataSize(sub_0)\n  dup1\n  dataOffset(sub_0)\n  0x0\n  codecopy\n  0x0\n  return\nstop\n\nsub_0: assembly {\n        /* \"example-event.sol\":113:445  contract eventExample {\r... */\n      mstore(0x40, 0x60)\n      jumpi(tag_1, lt(calldatasize, 0x4))\n      calldataload(0x0)\n      0x100000000000000000000000000000000000000000000000000000000\n      swap1\n      div\n      0xffffffff\n      and\n      dup1\n      0x3fa4f245\n      eq\n      tag_2\n      jumpi\n      dup1\n      0x6a19e6de\n      eq\n      tag_3\n      jumpi\n    tag_1:\n      0x0\n      dup1\n      revert\n        /* \"example-event.sol\":179:203  uint256 public value = 0 */\n    tag_2:\n      jumpi(tag_4, iszero(callvalue))\n      0x0\n      dup1\n      revert\n    tag_4:\n      tag_5\n      jump(tag_6)\n    tag_5:\n      mload(0x40)\n      dup1\n      dup3\n      dup2\n      mstore\n      0x20\n      add\n      swap2\n      pop\n      pop\n      mload(0x40)\n      dup1\n      swap2\n      sub\n      swap1\n      return\n        /* \"example-event.sol\":328:442  function getValue(uint _a, uint _b) public {\r... */\n    tag_3:\n      jumpi(tag_7, iszero(callvalue))\n      0x0\n      dup1\n      revert\n    tag_7:\n      tag_8\n      0x4\n      dup1\n      dup1\n      calldataload\n      swap1\n      0x20\n      add\n      swap1\n      swap2\n      swap1\n      dup1\n      calldataload\n      swap1\n      0x20\n      add\n      swap1\n      swap2\n      swap1\n      pop\n      pop\n      jump(tag_9)\n    tag_8:\n      stop\n        /* \"example-event.sol\":179:203  uint256 public value = 0 */\n    tag_6:\n      sload(0x0)\n      dup2\n      jump\t// out\n        /* \"example-event.sol\":328:442  function getValue(uint _a, uint _b) public {\r... */\n    tag_9:\n        /* \"example-event.sol\":387:408  Increment(msg.sender) */\n      0xfc3a67c9f0b5967ae4041ed898b05ec1fa49d2a3c22336247201d71be6f97120\n        /* \"example-event.sol\":397:407  msg.sender */\n      caller\n        /* \"example-event.sol\":387:408  Increment(msg.sender) */\n      mload(0x40)\n      dup1\n      dup3\n      0xffffffffffffffffffffffffffffffffffffffff\n      and\n      0xffffffffffffffffffffffffffffffffffffffff\n      and\n      dup2\n      mstore\n      0x20\n      add\n      swap2\n      pop\n      pop\n      mload(0x40)\n      dup1\n      swap2\n      sub\n      swap1\n      log1\n        /* \"example-event.sol\":432:434  _b */\n      dup1\n        /* \"example-event.sol\":427:429  _a */\n      dup3\n        /* \"example-event.sol\":427:434  _a + _b */\n      add\n        /* \"example-event.sol\":419:424  value */\n      0x0\n        /* \"example-event.sol\":419:434  value = _a + _b */\n      dup2\n      swap1\n      sstore\n      pop\n        /* \"example-event.sol\":328:442  function getValue(uint _a, uint _b) public {\r... */\n      pop\n      pop\n      jump\t// out\n\n    auxdata: 0xa165627a7a72305820a5569936a3fd9c97562643892988edec7ffe2e9b1878882f00c44a04cb33f8760029\n}\n",
				"bytecode": {
					"linkReferences": {},
					"object": "606060405260008055341561001357600080fd5b610148806100226000396000f30060606040526004361061004c576000357c0100000000000000000000000000000000000000000000000000000000900463ffffffff1680633fa4f245146100515780636a19e6de1461007a575b600080fd5b341561005c57600080fd5b6100646100a6565b6040518082815260200191505060405180910390f35b341561008557600080fd5b6100a460048080359060200190919080359060200190919050506100ac565b005b60005481565b7ffc3a67c9f0b5967ae4041ed898b05ec1fa49d2a3c22336247201d71be6f9712033604051808273ffffffffffffffffffffffffffffffffffffffff1673ffffffffffffffffffffffffffffffffffffffff16815260200191505060405180910390a180820160008190555050505600a165627a7a72305820a5569936a3fd9c97562643892988edec7ffe2e9b1878882f00c44a04cb33f8760029",
					"opcodes": "PUSH1 0x60 PUSH1 0x40 MSTORE PUSH1 0x0 DUP1 SSTORE CALLVALUE ISZERO PUSH2 0x13 JUMPI PUSH1 0x0 DUP1 REVERT JUMPDEST PUSH2 0x148 DUP1 PUSH2 0x22 PUSH1 0x0 CODECOPY PUSH1 0x0 RETURN STOP PUSH1 0x60 PUSH1 0x40 MSTORE PUSH1 0x4 CALLDATASIZE LT PUSH2 0x4C JUMPI PUSH1 0x0 CALLDATALOAD PUSH29 0x100000000000000000000000000000000000000000000000000000000 SWAP1 DIV PUSH4 0xFFFFFFFF AND DUP1 PUSH4 0x3FA4F245 EQ PUSH2 0x51 JUMPI DUP1 PUSH4 0x6A19E6DE EQ PUSH2 0x7A JUMPI JUMPDEST PUSH1 0x0 DUP1 REVERT JUMPDEST CALLVALUE ISZERO PUSH2 0x5C JUMPI PUSH1 0x0 DUP1 REVERT JUMPDEST PUSH2 0x64 PUSH2 0xA6 JUMP JUMPDEST PUSH1 0x40 MLOAD DUP1 DUP3 DUP2 MSTORE PUSH1 0x20 ADD SWAP2 POP POP PUSH1 0x40 MLOAD DUP1 SWAP2 SUB SWAP1 RETURN JUMPDEST CALLVALUE ISZERO PUSH2 0x85 JUMPI PUSH1 0x0 DUP1 REVERT JUMPDEST PUSH2 0xA4 PUSH1 0x4 DUP1 DUP1 CALLDATALOAD SWAP1 PUSH1 0x20 ADD SWAP1 SWAP2 SWAP1 DUP1 CALLDATALOAD SWAP1 PUSH1 0x20 ADD SWAP1 SWAP2 SWAP1 POP POP PUSH2 0xAC JUMP JUMPDEST STOP JUMPDEST PUSH1 0x0 SLOAD DUP2 JUMP JUMPDEST PUSH32 0xFC3A67C9F0B5967AE4041ED898B05EC1FA49D2A3C22336247201D71BE6F97120 CALLER PUSH1 0x40 MLOAD DUP1 DUP3 PUSH20 0xFFFFFFFFFFFFFFFFFFFFFFFFFFFFFFFFFFFFFFFF AND PUSH20 0xFFFFFFFFFFFFFFFFFFFFFFFFFFFFFFFFFFFFFFFF AND DUP2 MSTORE PUSH1 0x20 ADD SWAP2 POP POP PUSH1 0x40 MLOAD DUP1 SWAP2 SUB SWAP1 LOG1 DUP1 DUP3 ADD PUSH1 0x0 DUP2 SWAP1 SSTORE POP POP POP JUMP STOP LOG1 PUSH6 0x627A7A723058 KECCAK256 0xa5 JUMP SWAP10 CALLDATASIZE LOG3 REVERT SWAP13 SWAP8 JUMP 0x26 NUMBER DUP10 0x29 DUP9 0xed 0xec PUSH32 0xFE2E9B1878882F00C44A04CB33F8760029000000000000000000000000000000 "
				},
				"gasEstimates": {
					"creation": {
						"codeDepositCost": "65600",
						"executionCost": "5118",
						"totalCost": "70718"
					},
					"external": {
						"getValue(uint256,uint256)": "21307",
						"value()": "386"
					}
				},
				"methodIdentifiers": {
					"getValue(uint256,uint256)": "6a19e6de",
					"value()": "3fa4f245"
				}
			},
			"userdoc": {
				"methods": {}
			}
		}
	}
}