{
	"Send-Eth-Scontract-othercontract.sol": {
		"SendingEther": {
			"abi": [
				{
					"constant": false,
					"inputs": [
						{
							"internalType": "address payable",
							"name": "recepient",
							"type": "address"
						}
					],
					"name": "sendether",
					"outputs": [],
					"payable": false,
					"stateMutability": "nonpayable",
					"type": "function"
				}
			],
			"devdoc": {
				"methods": {}
			},
			"evm": {
				"assembly": "    /* \"Send-Eth-Scontract-othercontract.sol\":28:354  contract SendingEther {\r... */\n  mstore(0x40, 0x80)\n  callvalue\n    /* \"--CODEGEN--\":8:17   */\n  dup1\n    /* \"--CODEGEN--\":5:7   */\n  iszero\n  tag_1\n  jumpi\n    /* \"--CODEGEN--\":30:31   */\n  0x00\n    /* \"--CODEGEN--\":27:28   */\n  dup1\n    /* \"--CODEGEN--\":20:32   */\n  revert\n    /* \"--CODEGEN--\":5:7   */\ntag_1:\n    /* \"Send-Eth-Scontract-othercontract.sol\":28:354  contract SendingEther {\r... */\n  pop\n  dataSize(sub_0)\n  dup1\n  dataOffset(sub_0)\n  0x00\n  codecopy\n  0x00\n  return\nstop\n\nsub_0: assembly {\n        /* \"Send-Eth-Scontract-othercontract.sol\":28:354  contract SendingEther {\r... */\n      mstore(0x40, 0x80)\n      callvalue\n        /* \"--CODEGEN--\":8:17   */\n      dup1\n        /* \"--CODEGEN--\":5:7   */\n      iszero\n      tag_1\n      jumpi\n        /* \"--CODEGEN--\":30:31   */\n      0x00\n        /* \"--CODEGEN--\":27:28   */\n      dup1\n        /* \"--CODEGEN--\":20:32   */\n      revert\n        /* \"--CODEGEN--\":5:7   */\n    tag_1:\n        /* \"Send-Eth-Scontract-othercontract.sol\":28:354  contract SendingEther {\r... */\n      pop\n      jumpi(tag_2, lt(calldatasize, 0x04))\n      shr(0xe0, calldataload(0x00))\n      dup1\n      0x8d249cae\n      eq\n      tag_3\n      jumpi\n    tag_2:\n      0x00\n      dup1\n      revert\n        /* \"Send-Eth-Scontract-othercontract.sol\":101:351  function sendether(address payable recepient) external{\r... */\n    tag_3:\n      tag_4\n      0x04\n      dup1\n      calldatasize\n      sub\n        /* \"--CODEGEN--\":13:15   */\n      0x20\n        /* \"--CODEGEN--\":8:11   */\n      dup2\n        /* \"--CODEGEN--\":5:16   */\n      lt\n        /* \"--CODEGEN--\":2:4   */\n      iszero\n      tag_5\n      jumpi\n        /* \"--CODEGEN--\":29:30   */\n      0x00\n        /* \"--CODEGEN--\":26:27   */\n      dup1\n        /* \"--CODEGEN--\":19:31   */\n      revert\n        /* \"--CODEGEN--\":2:4   */\n    tag_5:\n        /* \"Send-Eth-Scontract-othercontract.sol\":101:351  function sendether(address payable recepient) external{\r... */\n      dup2\n      add\n      swap1\n      dup1\n      dup1\n      calldataload\n      0xffffffffffffffffffffffffffffffffffffffff\n      and\n      swap1\n      0x20\n      add\n      swap1\n      swap3\n      swap2\n      swap1\n      pop\n      pop\n      pop\n      tag_6\n      jump\t// in\n    tag_4:\n      stop\n    tag_6:\n        /* \"Send-Eth-Scontract-othercontract.sol\":166:175  recepient */\n      dup1\n        /* \"Send-Eth-Scontract-othercontract.sol\":166:184  recepient.transfer */\n      0xffffffffffffffffffffffffffffffffffffffff\n      and\n        /* \"Send-Eth-Scontract-othercontract.sol\":166:195  recepient.transfer(0.1 ether) */\n      0x08fc\n        /* \"Send-Eth-Scontract-othercontract.sol\":185:194  0.1 ether */\n      0x016345785d8a0000\n        /* \"Send-Eth-Scontract-othercontract.sol\":166:195  recepient.transfer(0.1 ether) */\n      swap1\n      dup2\n      iszero\n      mul\n      swap1\n      mload(0x40)\n      0x00\n      mload(0x40)\n      dup1\n      dup4\n      sub\n      dup2\n      dup6\n      dup9\n      dup9\n      call\n      swap4\n      pop\n      pop\n      pop\n      pop\n      iszero\n        /* \"--CODEGEN--\":8:17   */\n      dup1\n        /* \"--CODEGEN--\":5:7   */\n      iszero\n      tag_8\n      jumpi\n        /* \"--CODEGEN--\":45:61   */\n      returndatasize\n        /* \"--CODEGEN--\":42:43   */\n      0x00\n        /* \"--CODEGEN--\":39:40   */\n      dup1\n        /* \"--CODEGEN--\":24:62   */\n      returndatacopy\n        /* \"--CODEGEN--\":77:93   */\n      returndatasize\n        /* \"--CODEGEN--\":74:75   */\n      0x00\n        /* \"--CODEGEN--\":67:94   */\n      revert\n        /* \"--CODEGEN--\":5:7   */\n    tag_8:\n        /* \"Send-Eth-Scontract-othercontract.sol\":166:195  recepient.transfer(0.1 ether) */\n      pop\n        /* \"Send-Eth-Scontract-othercontract.sol\":206:223  address payable a */\n      0x00\n        /* \"Send-Eth-Scontract-othercontract.sol\":237:246  recepient */\n      dup2\n        /* \"Send-Eth-Scontract-othercontract.sol\":234:246  a= recepient */\n      swap1\n      pop\n        /* \"Send-Eth-Scontract-othercontract.sol\":257:258  a */\n      dup1\n        /* \"Send-Eth-Scontract-othercontract.sol\":257:267  a.transfer */\n      0xffffffffffffffffffffffffffffffffffffffff\n      and\n        /* \"Send-Eth-Scontract-othercontract.sol\":257:272  a.transfer(100) */\n      0x08fc\n        /* \"Send-Eth-Scontract-othercontract.sol\":268:271  100 */\n      0x64\n        /* \"Send-Eth-Scontract-othercontract.sol\":257:272  a.transfer(100) */\n      swap1\n      dup2\n      iszero\n      mul\n      swap1\n      mload(0x40)\n      0x00\n      mload(0x40)\n      dup1\n      dup4\n      sub\n      dup2\n      dup6\n      dup9\n      dup9\n      call\n      swap4\n      pop\n      pop\n      pop\n      pop\n      iszero\n        /* \"--CODEGEN--\":8:17   */\n      dup1\n        /* \"--CODEGEN--\":5:7   */\n      iszero\n      tag_9\n      jumpi\n        /* \"--CODEGEN--\":45:61   */\n      returndatasize\n        /* \"--CODEGEN--\":42:43   */\n      0x00\n        /* \"--CODEGEN--\":39:40   */\n      dup1\n        /* \"--CODEGEN--\":24:62   */\n      returndatacopy\n        /* \"--CODEGEN--\":77:93   */\n      returndatasize\n        /* \"--CODEGEN--\":74:75   */\n      0x00\n        /* \"--CODEGEN--\":67:94   */\n      revert\n        /* \"--CODEGEN--\":5:7   */\n    tag_9:\n        /* \"Send-Eth-Scontract-othercontract.sol\":257:272  a.transfer(100) */\n      pop\n        /* \"Send-Eth-Scontract-othercontract.sol\":283:293  msg.sender */\n      caller\n        /* \"Send-Eth-Scontract-othercontract.sol\":283:302  msg.sender.transfer */\n      0xffffffffffffffffffffffffffffffffffffffff\n      and\n        /* \"Send-Eth-Scontract-othercontract.sol\":283:307  msg.sender.transfer(100) */\n      0x08fc\n        /* \"Send-Eth-Scontract-othercontract.sol\":303:306  100 */\n      0x64\n        /* \"Send-Eth-Scontract-othercontract.sol\":283:307  msg.sender.transfer(100) */\n      swap1\n      dup2\n      iszero\n      mul\n      swap1\n      mload(0x40)\n      0x00\n      mload(0x40)\n      dup1\n      dup4\n      sub\n      dup2\n      dup6\n      dup9\n      dup9\n      call\n      swap4\n      pop\n      pop\n      pop\n      pop\n      iszero\n        /* \"--CODEGEN--\":8:17   */\n      dup1\n        /* \"--CODEGEN--\":5:7   */\n      iszero\n      tag_10\n      jumpi\n        /* \"--CODEGEN--\":45:61   */\n      returndatasize\n        /* \"--CODEGEN--\":42:43   */\n      0x00\n        /* \"--CODEGEN--\":39:40   */\n      dup1\n        /* \"--CODEGEN--\":24:62   */\n      returndatacopy\n        /* \"--CODEGEN--\":77:93   */\n      returndatasize\n        /* \"--CODEGEN--\":74:75   */\n      0x00\n        /* \"--CODEGEN--\":67:94   */\n      revert\n        /* \"--CODEGEN--\":5:7   */\n    tag_10:\n        /* \"Send-Eth-Scontract-othercontract.sol\":283:307  msg.sender.transfer(100) */\n      pop\n        /* \"Send-Eth-Scontract-othercontract.sol\":318:327  recepient */\n      dup2\n        /* \"Send-Eth-Scontract-othercontract.sol\":318:332  recepient.send */\n      0xffffffffffffffffffffffffffffffffffffffff\n      and\n        /* \"Send-Eth-Scontract-othercontract.sol\":318:343  recepient.send(0.1 ether) */\n      0x08fc\n        /* \"Send-Eth-Scontract-othercontract.sol\":333:342  0.1 ether */\n      0x016345785d8a0000\n        /* \"Send-Eth-Scontract-othercontract.sol\":318:343  recepient.send(0.1 ether) */\n      swap1\n      dup2\n      iszero\n      mul\n      swap1\n      mload(0x40)\n      0x00\n      mload(0x40)\n      dup1\n      dup4\n      sub\n      dup2\n      dup6\n      dup9\n      dup9\n      call\n      swap4\n      pop\n      pop\n      pop\n      pop\n      pop\n        /* \"Send-Eth-Scontract-othercontract.sol\":101:351  function sendether(address payable recepient) external{\r... */\n      pop\n      pop\n      jump\t// out\n\n    auxdata: 0xa265627a7a7231582033af0d324f33dac1a5affbebfa97e3b4bd5a6b528b32854c90b21bdb40d3c00964736f6c634300050b0032\n}\n",
				"bytecode": {
					"linkReferences": {},
					"object": "608060405234801561001057600080fd5b506101cf806100206000396000f3fe608060405234801561001057600080fd5b506004361061002b5760003560e01c80638d249cae14610030575b600080fd5b6100726004803603602081101561004657600080fd5b81019080803573ffffffffffffffffffffffffffffffffffffffff169060200190929190505050610074565b005b8073ffffffffffffffffffffffffffffffffffffffff166108fc67016345785d8a00009081150290604051600060405180830381858888f193505050501580156100c2573d6000803e3d6000fd5b5060008190508073ffffffffffffffffffffffffffffffffffffffff166108fc60649081150290604051600060405180830381858888f1935050505015801561010f573d6000803e3d6000fd5b503373ffffffffffffffffffffffffffffffffffffffff166108fc60649081150290604051600060405180830381858888f19350505050158015610157573d6000803e3d6000fd5b508173ffffffffffffffffffffffffffffffffffffffff166108fc67016345785d8a00009081150290604051600060405180830381858888f1935050505050505056fea265627a7a7231582033af0d324f33dac1a5affbebfa97e3b4bd5a6b528b32854c90b21bdb40d3c00964736f6c634300050b0032",
					"opcodes": "PUSH1 0x80 PUSH1 0x40 MSTORE CALLVALUE DUP1 ISZERO PUSH2 0x10 JUMPI PUSH1 0x0 DUP1 REVERT JUMPDEST POP PUSH2 0x1CF DUP1 PUSH2 0x20 PUSH1 0x0 CODECOPY PUSH1 0x0 RETURN INVALID PUSH1 0x80 PUSH1 0x40 MSTORE CALLVALUE DUP1 ISZERO PUSH2 0x10 JUMPI PUSH1 0x0 DUP1 REVERT JUMPDEST POP PUSH1 0x4 CALLDATASIZE LT PUSH2 0x2B JUMPI PUSH1 0x0 CALLDATALOAD PUSH1 0xE0 SHR DUP1 PUSH4 0x8D249CAE EQ PUSH2 0x30 JUMPI JUMPDEST PUSH1 0x0 DUP1 REVERT JUMPDEST PUSH2 0x72 PUSH1 0x4 DUP1 CALLDATASIZE SUB PUSH1 0x20 DUP2 LT ISZERO PUSH2 0x46 JUMPI PUSH1 0x0 DUP1 REVERT JUMPDEST DUP2 ADD SWAP1 DUP1 DUP1 CALLDATALOAD PUSH20 0xFFFFFFFFFFFFFFFFFFFFFFFFFFFFFFFFFFFFFFFF AND SWAP1 PUSH1 0x20 ADD SWAP1 SWAP3 SWAP2 SWAP1 POP POP POP PUSH2 0x74 JUMP JUMPDEST STOP JUMPDEST DUP1 PUSH20 0xFFFFFFFFFFFFFFFFFFFFFFFFFFFFFFFFFFFFFFFF AND PUSH2 0x8FC PUSH8 0x16345785D8A0000 SWAP1 DUP2 ISZERO MUL SWAP1 PUSH1 0x40 MLOAD PUSH1 0x0 PUSH1 0x40 MLOAD DUP1 DUP4 SUB DUP2 DUP6 DUP9 DUP9 CALL SWAP4 POP POP POP POP ISZERO DUP1 ISZERO PUSH2 0xC2 JUMPI RETURNDATASIZE PUSH1 0x0 DUP1 RETURNDATACOPY RETURNDATASIZE PUSH1 0x0 REVERT JUMPDEST POP PUSH1 0x0 DUP2 SWAP1 POP DUP1 PUSH20 0xFFFFFFFFFFFFFFFFFFFFFFFFFFFFFFFFFFFFFFFF AND PUSH2 0x8FC PUSH1 0x64 SWAP1 DUP2 ISZERO MUL SWAP1 PUSH1 0x40 MLOAD PUSH1 0x0 PUSH1 0x40 MLOAD DUP1 DUP4 SUB DUP2 DUP6 DUP9 DUP9 CALL SWAP4 POP POP POP POP ISZERO DUP1 ISZERO PUSH2 0x10F JUMPI RETURNDATASIZE PUSH1 0x0 DUP1 RETURNDATACOPY RETURNDATASIZE PUSH1 0x0 REVERT JUMPDEST POP CALLER PUSH20 0xFFFFFFFFFFFFFFFFFFFFFFFFFFFFFFFFFFFFFFFF AND PUSH2 0x8FC PUSH1 0x64 SWAP1 DUP2 ISZERO MUL SWAP1 PUSH1 0x40 MLOAD PUSH1 0x0 PUSH1 0x40 MLOAD DUP1 DUP4 SUB DUP2 DUP6 DUP9 DUP9 CALL SWAP4 POP POP POP POP ISZERO DUP1 ISZERO PUSH2 0x157 JUMPI RETURNDATASIZE PUSH1 0x0 DUP1 RETURNDATACOPY RETURNDATASIZE PUSH1 0x0 REVERT JUMPDEST POP DUP2 PUSH20 0xFFFFFFFFFFFFFFFFFFFFFFFFFFFFFFFFFFFFFFFF AND PUSH2 0x8FC PUSH8 0x16345785D8A0000 SWAP1 DUP2 ISZERO MUL SWAP1 PUSH1 0x40 MLOAD PUSH1 0x0 PUSH1 0x40 MLOAD DUP1 DUP4 SUB DUP2 DUP6 DUP9 DUP9 CALL SWAP4 POP POP POP POP POP POP POP JUMP INVALID LOG2 PUSH6 0x627A7A723158 KECCAK256 CALLER 0xaf 0xd ORIGIN 0x4f CALLER 0xda 0xc1 0xa5 0xaf 0xfb 0xeb STATICCALL SWAP8 0xe3 0xb4 0xbd GAS PUSH12 0x528B32854C90B21BDB40D3C0 MULMOD PUSH5 0x736F6C6343 STOP SDIV SIGNEXTEND STOP ORIGIN "
				},
				"gasEstimates": {
					"creation": {
						"codeDepositCost": "92600",
						"executionCost": "141",
						"totalCost": "92741"
					},
					"external": {
						"sendether(address)": "infinite"
					}
				},
				"methodIdentifiers": {
					"sendether(address)": "8d249cae"
				}
			},
			"userdoc": {
				"methods": {}
			}
		}
	}
}