{
	"data": {
		"bytecode": {
			"linkReferences": {},
			"object": "608060405234801561001057600080fd5b506103dd806100206000396000f3fe608060405234801561001057600080fd5b506004361061002b5760003560e01c80635984e71e14610030575b600080fd5b61004a6004803603810190610045919061013a565b61004c565b005b818373ffffffffffffffffffffffffffffffffffffffff167f9e67fc8553f3975e121e20233aa19846bc7b1658a99349a0a35df948d328795a8360405161009391906101e2565b60405180910390a3505050565b60006100b36100ae84610229565b610204565b9050828152602081018484840111156100cf576100ce610359565b5b6100da8482856102b2565b509392505050565b6000813590506100f181610379565b92915050565b600082601f83011261010c5761010b610354565b5b813561011c8482602086016100a0565b91505092915050565b60008135905061013481610390565b92915050565b60008060006060848603121561015357610152610363565b5b6000610161868287016100e2565b935050602061017286828701610125565b925050604084013567ffffffffffffffff8111156101935761019261035e565b5b61019f868287016100f7565b9150509250925092565b60006101b48261025a565b6101be8185610265565b93506101ce8185602086016102c1565b6101d781610368565b840191505092915050565b600060208201905081810360008301526101fc81846101a9565b905092915050565b600061020e61021f565b905061021a82826102f4565b919050565b6000604051905090565b600067ffffffffffffffff82111561024457610243610325565b5b61024d82610368565b9050602081019050919050565b600081519050919050565b600082825260208201905092915050565b600061028182610288565b9050919050565b600073ffffffffffffffffffffffffffffffffffffffff82169050919050565b6000819050919050565b82818337600083830152505050565b60005b838110156102df5780820151818401526020810190506102c4565b838111156102ee576000848401525b50505050565b6102fd82610368565b810181811067ffffffffffffffff8211171561031c5761031b610325565b5b80604052505050565b7f4e487b7100000000000000000000000000000000000000000000000000000000600052604160045260246000fd5b600080fd5b600080fd5b600080fd5b600080fd5b6000601f19601f8301169050919050565b61038281610276565b811461038d57600080fd5b50565b610399816102a8565b81146103a457600080fd5b5056fea2646970667358221220dc9c65f056a6e1788d1824f416efb91199510b66d7d5253b3402b64d4ccfec8b64736f6c63430008070033",
			"opcodes": "PUSH1 0x80 PUSH1 0x40 MSTORE CALLVALUE DUP1 ISZERO PUSH2 0x10 JUMPI PUSH1 0x0 DUP1 REVERT JUMPDEST POP PUSH2 0x3DD DUP1 PUSH2 0x20 PUSH1 0x0 CODECOPY PUSH1 0x0 RETURN INVALID PUSH1 0x80 PUSH1 0x40 MSTORE CALLVALUE DUP1 ISZERO PUSH2 0x10 JUMPI PUSH1 0x0 DUP1 REVERT JUMPDEST POP PUSH1 0x4 CALLDATASIZE LT PUSH2 0x2B JUMPI PUSH1 0x0 CALLDATALOAD PUSH1 0xE0 SHR DUP1 PUSH4 0x5984E71E EQ PUSH2 0x30 JUMPI JUMPDEST PUSH1 0x0 DUP1 REVERT JUMPDEST PUSH2 0x4A PUSH1 0x4 DUP1 CALLDATASIZE SUB DUP2 ADD SWAP1 PUSH2 0x45 SWAP2 SWAP1 PUSH2 0x13A JUMP JUMPDEST PUSH2 0x4C JUMP JUMPDEST STOP JUMPDEST DUP2 DUP4 PUSH20 0xFFFFFFFFFFFFFFFFFFFFFFFFFFFFFFFFFFFFFFFF AND PUSH32 0x9E67FC8553F3975E121E20233AA19846BC7B1658A99349A0A35DF948D328795A DUP4 PUSH1 0x40 MLOAD PUSH2 0x93 SWAP2 SWAP1 PUSH2 0x1E2 JUMP JUMPDEST PUSH1 0x40 MLOAD DUP1 SWAP2 SUB SWAP1 LOG3 POP POP POP JUMP JUMPDEST PUSH1 0x0 PUSH2 0xB3 PUSH2 0xAE DUP5 PUSH2 0x229 JUMP JUMPDEST PUSH2 0x204 JUMP JUMPDEST SWAP1 POP DUP3 DUP2 MSTORE PUSH1 0x20 DUP2 ADD DUP5 DUP5 DUP5 ADD GT ISZERO PUSH2 0xCF JUMPI PUSH2 0xCE PUSH2 0x359 JUMP JUMPDEST JUMPDEST PUSH2 0xDA DUP5 DUP3 DUP6 PUSH2 0x2B2 JUMP JUMPDEST POP SWAP4 SWAP3 POP POP POP JUMP JUMPDEST PUSH1 0x0 DUP2 CALLDATALOAD SWAP1 POP PUSH2 0xF1 DUP2 PUSH2 0x379 JUMP JUMPDEST SWAP3 SWAP2 POP POP JUMP JUMPDEST PUSH1 0x0 DUP3 PUSH1 0x1F DUP4 ADD SLT PUSH2 0x10C JUMPI PUSH2 0x10B PUSH2 0x354 JUMP JUMPDEST JUMPDEST DUP2 CALLDATALOAD PUSH2 0x11C DUP5 DUP3 PUSH1 0x20 DUP7 ADD PUSH2 0xA0 JUMP JUMPDEST SWAP2 POP POP SWAP3 SWAP2 POP POP JUMP JUMPDEST PUSH1 0x0 DUP2 CALLDATALOAD SWAP1 POP PUSH2 0x134 DUP2 PUSH2 0x390 JUMP JUMPDEST SWAP3 SWAP2 POP POP JUMP JUMPDEST PUSH1 0x0 DUP1 PUSH1 0x0 PUSH1 0x60 DUP5 DUP7 SUB SLT ISZERO PUSH2 0x153 JUMPI PUSH2 0x152 PUSH2 0x363 JUMP JUMPDEST JUMPDEST PUSH1 0x0 PUSH2 0x161 DUP7 DUP3 DUP8 ADD PUSH2 0xE2 JUMP JUMPDEST SWAP4 POP POP PUSH1 0x20 PUSH2 0x172 DUP7 DUP3 DUP8 ADD PUSH2 0x125 JUMP JUMPDEST SWAP3 POP POP PUSH1 0x40 DUP5 ADD CALLDATALOAD PUSH8 0xFFFFFFFFFFFFFFFF DUP2 GT ISZERO PUSH2 0x193 JUMPI PUSH2 0x192 PUSH2 0x35E JUMP JUMPDEST JUMPDEST PUSH2 0x19F DUP7 DUP3 DUP8 ADD PUSH2 0xF7 JUMP JUMPDEST SWAP2 POP POP SWAP3 POP SWAP3 POP SWAP3 JUMP JUMPDEST PUSH1 0x0 PUSH2 0x1B4 DUP3 PUSH2 0x25A JUMP JUMPDEST PUSH2 0x1BE DUP2 DUP6 PUSH2 0x265 JUMP JUMPDEST SWAP4 POP PUSH2 0x1CE DUP2 DUP6 PUSH1 0x20 DUP7 ADD PUSH2 0x2C1 JUMP JUMPDEST PUSH2 0x1D7 DUP2 PUSH2 0x368 JUMP JUMPDEST DUP5 ADD SWAP2 POP POP SWAP3 SWAP2 POP POP JUMP JUMPDEST PUSH1 0x0 PUSH1 0x20 DUP3 ADD SWAP1 POP DUP2 DUP2 SUB PUSH1 0x0 DUP4 ADD MSTORE PUSH2 0x1FC DUP2 DUP5 PUSH2 0x1A9 JUMP JUMPDEST SWAP1 POP SWAP3 SWAP2 POP POP JUMP JUMPDEST PUSH1 0x0 PUSH2 0x20E PUSH2 0x21F JUMP JUMPDEST SWAP1 POP PUSH2 0x21A DUP3 DUP3 PUSH2 0x2F4 JUMP JUMPDEST SWAP2 SWAP1 POP JUMP JUMPDEST PUSH1 0x0 PUSH1 0x40 MLOAD SWAP1 POP SWAP1 JUMP JUMPDEST PUSH1 0x0 PUSH8 0xFFFFFFFFFFFFFFFF DUP3 GT ISZERO PUSH2 0x244 JUMPI PUSH2 0x243 PUSH2 0x325 JUMP JUMPDEST JUMPDEST PUSH2 0x24D DUP3 PUSH2 0x368 JUMP JUMPDEST SWAP1 POP PUSH1 0x20 DUP2 ADD SWAP1 POP SWAP2 SWAP1 POP JUMP JUMPDEST PUSH1 0x0 DUP2 MLOAD SWAP1 POP SWAP2 SWAP1 POP JUMP JUMPDEST PUSH1 0x0 DUP3 DUP3 MSTORE PUSH1 0x20 DUP3 ADD SWAP1 POP SWAP3 SWAP2 POP POP JUMP JUMPDEST PUSH1 0x0 PUSH2 0x281 DUP3 PUSH2 0x288 JUMP JUMPDEST SWAP1 POP SWAP2 SWAP1 POP JUMP JUMPDEST PUSH1 0x0 PUSH20 0xFFFFFFFFFFFFFFFFFFFFFFFFFFFFFFFFFFFFFFFF DUP3 AND SWAP1 POP SWAP2 SWAP1 POP JUMP JUMPDEST PUSH1 0x0 DUP2 SWAP1 POP SWAP2 SWAP1 POP JUMP JUMPDEST DUP3 DUP2 DUP4 CALLDATACOPY PUSH1 0x0 DUP4 DUP4 ADD MSTORE POP POP POP JUMP JUMPDEST PUSH1 0x0 JUMPDEST DUP4 DUP2 LT ISZERO PUSH2 0x2DF JUMPI DUP1 DUP3 ADD MLOAD DUP2 DUP5 ADD MSTORE PUSH1 0x20 DUP2 ADD SWAP1 POP PUSH2 0x2C4 JUMP JUMPDEST DUP4 DUP2 GT ISZERO PUSH2 0x2EE JUMPI PUSH1 0x0 DUP5 DUP5 ADD MSTORE JUMPDEST POP POP POP POP JUMP JUMPDEST PUSH2 0x2FD DUP3 PUSH2 0x368 JUMP JUMPDEST DUP2 ADD DUP2 DUP2 LT PUSH8 0xFFFFFFFFFFFFFFFF DUP3 GT OR ISZERO PUSH2 0x31C JUMPI PUSH2 0x31B PUSH2 0x325 JUMP JUMPDEST JUMPDEST DUP1 PUSH1 0x40 MSTORE POP POP POP JUMP JUMPDEST PUSH32 0x4E487B7100000000000000000000000000000000000000000000000000000000 PUSH1 0x0 MSTORE PUSH1 0x41 PUSH1 0x4 MSTORE PUSH1 0x24 PUSH1 0x0 REVERT JUMPDEST PUSH1 0x0 DUP1 REVERT JUMPDEST PUSH1 0x0 DUP1 REVERT JUMPDEST PUSH1 0x0 DUP1 REVERT JUMPDEST PUSH1 0x0 DUP1 REVERT JUMPDEST PUSH1 0x0 PUSH1 0x1F NOT PUSH1 0x1F DUP4 ADD AND SWAP1 POP SWAP2 SWAP1 POP JUMP JUMPDEST PUSH2 0x382 DUP2 PUSH2 0x276 JUMP JUMPDEST DUP2 EQ PUSH2 0x38D JUMPI PUSH1 0x0 DUP1 REVERT JUMPDEST POP JUMP JUMPDEST PUSH2 0x399 DUP2 PUSH2 0x2A8 JUMP JUMPDEST DUP2 EQ PUSH2 0x3A4 JUMPI PUSH1 0x0 DUP1 REVERT JUMPDEST POP JUMP INVALID LOG2 PUSH5 0x6970667358 0x22 SLT KECCAK256 0xDC SWAP13 PUSH6 0xF056A6E1788D XOR 0x24 DELEGATECALL AND 0xEF 0xB9 GT SWAP10 MLOAD SIGNEXTEND PUSH7 0xD7D5253B3402B6 0x4D 0x4C 0xCF 0xEC DUP12 PUSH5 0x736F6C6343 STOP ADDMOD SMOD STOP CALLER "
		},
		"gasEstimates": {
			"creation": {
				"codeDepositCost": "197800",
				"executionCost": "238",
				"totalCost": "198038"
			},
			"external": {
				"display(address,uint256,string)": "infinite"
			}
		},
		"methodIdentifiers": {
			"display(address,uint256,string)": "5984e71e"
		}
	},
	"abi": [
		{
			"anonymous": false,
			"inputs": [
				{
					"indexed": true,
					"internalType": "address",
					"name": "addressId",
					"type": "address"
				},
				{
					"indexed": true,
					"internalType": "uint256",
					"name": "_age",
					"type": "uint256"
				},
				{
					"indexed": false,
					"internalType": "string",
					"name": "city",
					"type": "string"
				}
			],
			"name": "showData",
			"type": "event"
		},
		{
			"inputs": [
				{
					"internalType": "address",
					"name": "_addressId",
					"type": "address"
				},
				{
					"internalType": "uint256",
					"name": "_age",
					"type": "uint256"
				},
				{
					"internalType": "string",
					"name": "_city",
					"type": "string"
				}
			],
			"name": "display",
			"outputs": [],
			"stateMutability": "nonpayable",
			"type": "function"
		}
	]
}