{
	"Error-Handaling/error.sol": {
		"Myerror": {
			"abi": [
				{
					"constant": false,
					"inputs": [],
					"name": "foo",
					"outputs": [],
					"payable": false,
					"stateMutability": "nonpayable",
					"type": "function"
				},
				{
					"constant": false,
					"inputs": [],
					"name": "willThrow",
					"outputs": [],
					"payable": false,
					"stateMutability": "nonpayable",
					"type": "function"
				}
			],
			"devdoc": {
				"methods": {}
			},
			"evm": {
				"assembly": "    /* \"Error-Handaling/error.sol\":27:333  contract Myerror{\r... */\n  mstore(0x40, 0x80)\n  callvalue\n    /* \"--CODEGEN--\":8:17   */\n  dup1\n    /* \"--CODEGEN--\":5:7   */\n  iszero\n  tag_1\n  jumpi\n    /* \"--CODEGEN--\":30:31   */\n  0x00\n    /* \"--CODEGEN--\":27:28   */\n  dup1\n    /* \"--CODEGEN--\":20:32   */\n  revert\n    /* \"--CODEGEN--\":5:7   */\ntag_1:\n    /* \"Error-Handaling/error.sol\":27:333  contract Myerror{\r... */\n  pop\n  dataSize(sub_0)\n  dup1\n  dataOffset(sub_0)\n  0x00\n  codecopy\n  0x00\n  return\nstop\n\nsub_0: assembly {\n        /* \"Error-Handaling/error.sol\":27:333  contract Myerror{\r... */\n      mstore(0x40, 0x80)\n      callvalue\n        /* \"--CODEGEN--\":8:17   */\n      dup1\n        /* \"--CODEGEN--\":5:7   */\n      iszero\n      tag_1\n      jumpi\n        /* \"--CODEGEN--\":30:31   */\n      0x00\n        /* \"--CODEGEN--\":27:28   */\n      dup1\n        /* \"--CODEGEN--\":20:32   */\n      revert\n        /* \"--CODEGEN--\":5:7   */\n    tag_1:\n        /* \"Error-Handaling/error.sol\":27:333  contract Myerror{\r... */\n      pop\n      jumpi(tag_2, lt(calldatasize, 0x04))\n      shr(0xe0, calldataload(0x00))\n      dup1\n      0x18955b1e\n      eq\n      tag_3\n      jumpi\n      dup1\n      0xc2985578\n      eq\n      tag_4\n      jumpi\n    tag_2:\n      0x00\n      dup1\n      revert\n        /* \"Error-Handaling/error.sol\":261:330  function willThrow() external{\r... */\n    tag_3:\n      tag_5\n      tag_6\n      jump\t// in\n    tag_5:\n      stop\n        /* \"Error-Handaling/error.sol\":63:255  function foo() external{\r... */\n    tag_4:\n      tag_7\n      tag_8\n      jump\t// in\n    tag_7:\n      stop\n        /* \"Error-Handaling/error.sol\":261:330  function willThrow() external{\r... */\n    tag_6:\n        /* \"Error-Handaling/error.sol\":301:322  revert('bcz reasons') */\n      mload(0x40)\n      0x08c379a000000000000000000000000000000000000000000000000000000000\n      dup2\n      mstore\n      0x04\n      add\n      dup1\n      dup1\n      0x20\n      add\n      dup3\n      dup2\n      sub\n      dup3\n      mstore\n      0x0b\n      dup2\n      mstore\n      0x20\n      add\n      dup1\n      0x62637a20726561736f6e73000000000000000000000000000000000000000000\n      dup2\n      mstore\n      pop\n      0x20\n      add\n      swap2\n      pop\n      pop\n      mload(0x40)\n      dup1\n      swap2\n      sub\n      swap1\n      revert\n        /* \"Error-Handaling/error.sol\":63:255  function foo() external{\r... */\n    tag_8:\n        /* \"Error-Handaling/error.sol\":106:108  10 */\n      0x0a\n        /* \"Error-Handaling/error.sol\":101:102  a */\n      sload(0x00)\n        /* \"Error-Handaling/error.sol\":101:108  a == 10 */\n      eq\n        /* \"Error-Handaling/error.sol\":97:170  if (a == 10) {\r... */\n      iszero\n      tag_11\n      jumpi\n        /* \"Error-Handaling/error.sol\":125:158  revert ('this is why it reverts') */\n      mload(0x40)\n      0x08c379a000000000000000000000000000000000000000000000000000000000\n      dup2\n      mstore\n      0x04\n      add\n      dup1\n      dup1\n      0x20\n      add\n      dup3\n      dup2\n      sub\n      dup3\n      mstore\n      0x16\n      dup2\n      mstore\n      0x20\n      add\n      dup1\n      0x7468697320697320776879206974207265766572747300000000000000000000\n      dup2\n      mstore\n      pop\n      0x20\n      add\n      swap2\n      pop\n      pop\n      mload(0x40)\n      dup1\n      swap2\n      sub\n      swap1\n      revert\n        /* \"Error-Handaling/error.sol\":97:170  if (a == 10) {\r... */\n    tag_11:\n        /* \"Error-Handaling/error.sol\":192:194  10 */\n      0x0a\n        /* \"Error-Handaling/error.sol\":189:190  a */\n      sload(0x00)\n        /* \"Error-Handaling/error.sol\":189:194  a!=10 */\n      eq\n      iszero\n        /* \"Error-Handaling/error.sol\":180:221  require (a!=10, 'this is why it reverts') */\n      tag_12\n      jumpi\n      mload(0x40)\n      0x08c379a000000000000000000000000000000000000000000000000000000000\n      dup2\n      mstore\n      0x04\n      add\n      dup1\n      dup1\n      0x20\n      add\n      dup3\n      dup2\n      sub\n      dup3\n      mstore\n      0x16\n      dup2\n      mstore\n      0x20\n      add\n      dup1\n      0x7468697320697320776879206974207265766572747300000000000000000000\n      dup2\n      mstore\n      pop\n      0x20\n      add\n      swap2\n      pop\n      pop\n      mload(0x40)\n      dup1\n      swap2\n      sub\n      swap1\n      revert\n    tag_12:\n        /* \"Error-Handaling/error.sol\":242:244  10 */\n      0x0a\n        /* \"Error-Handaling/error.sol\":239:240  a */\n      sload(0x00)\n        /* \"Error-Handaling/error.sol\":239:244  a!=10 */\n      eq\n      iszero\n        /* \"Error-Handaling/error.sol\":232:245  assert(a!=10) */\n      tag_13\n      jumpi\n      invalid\n    tag_13:\n        /* \"Error-Handaling/error.sol\":63:255  function foo() external{\r... */\n      jump\t// out\n\n    auxdata: 0xa265627a7a72315820c9e8a3211ca9534cf80fd5052d677c3908c97bd774a1c67b677166391c127f9364736f6c63430005110032\n}\n",
				"bytecode": {
					"linkReferences": {},
					"object": "608060405234801561001057600080fd5b506101f3806100206000396000f3fe608060405234801561001057600080fd5b50600436106100365760003560e01c806318955b1e1461003b578063c298557814610045575b600080fd5b61004361004f565b005b61004d6100bd565b005b6040517f08c379a000000000000000000000000000000000000000000000000000000000815260040180806020018281038252600b8152602001807f62637a20726561736f6e7300000000000000000000000000000000000000000081525060200191505060405180910390fd5b600a6000541415610136576040517f08c379a00000000000000000000000000000000000000000000000000000000081526004018080602001828103825260168152602001807f746869732069732077687920697420726576657274730000000000000000000081525060200191505060405180910390fd5b600a60005414156101af576040517f08c379a00000000000000000000000000000000000000000000000000000000081526004018080602001828103825260168152602001807f746869732069732077687920697420726576657274730000000000000000000081525060200191505060405180910390fd5b600a60005414156101bc57fe5b56fea265627a7a72315820c9e8a3211ca9534cf80fd5052d677c3908c97bd774a1c67b677166391c127f9364736f6c63430005110032",
					"opcodes": "PUSH1 0x80 PUSH1 0x40 MSTORE CALLVALUE DUP1 ISZERO PUSH2 0x10 JUMPI PUSH1 0x0 DUP1 REVERT JUMPDEST POP PUSH2 0x1F3 DUP1 PUSH2 0x20 PUSH1 0x0 CODECOPY PUSH1 0x0 RETURN INVALID PUSH1 0x80 PUSH1 0x40 MSTORE CALLVALUE DUP1 ISZERO PUSH2 0x10 JUMPI PUSH1 0x0 DUP1 REVERT JUMPDEST POP PUSH1 0x4 CALLDATASIZE LT PUSH2 0x36 JUMPI PUSH1 0x0 CALLDATALOAD PUSH1 0xE0 SHR DUP1 PUSH4 0x18955B1E EQ PUSH2 0x3B JUMPI DUP1 PUSH4 0xC2985578 EQ PUSH2 0x45 JUMPI JUMPDEST PUSH1 0x0 DUP1 REVERT JUMPDEST PUSH2 0x43 PUSH2 0x4F JUMP JUMPDEST STOP JUMPDEST PUSH2 0x4D PUSH2 0xBD JUMP JUMPDEST STOP JUMPDEST PUSH1 0x40 MLOAD PUSH32 0x8C379A000000000000000000000000000000000000000000000000000000000 DUP2 MSTORE PUSH1 0x4 ADD DUP1 DUP1 PUSH1 0x20 ADD DUP3 DUP2 SUB DUP3 MSTORE PUSH1 0xB DUP2 MSTORE PUSH1 0x20 ADD DUP1 PUSH32 0x62637A20726561736F6E73000000000000000000000000000000000000000000 DUP2 MSTORE POP PUSH1 0x20 ADD SWAP2 POP POP PUSH1 0x40 MLOAD DUP1 SWAP2 SUB SWAP1 REVERT JUMPDEST PUSH1 0xA PUSH1 0x0 SLOAD EQ ISZERO PUSH2 0x136 JUMPI PUSH1 0x40 MLOAD PUSH32 0x8C379A000000000000000000000000000000000000000000000000000000000 DUP2 MSTORE PUSH1 0x4 ADD DUP1 DUP1 PUSH1 0x20 ADD DUP3 DUP2 SUB DUP3 MSTORE PUSH1 0x16 DUP2 MSTORE PUSH1 0x20 ADD DUP1 PUSH32 0x7468697320697320776879206974207265766572747300000000000000000000 DUP2 MSTORE POP PUSH1 0x20 ADD SWAP2 POP POP PUSH1 0x40 MLOAD DUP1 SWAP2 SUB SWAP1 REVERT JUMPDEST PUSH1 0xA PUSH1 0x0 SLOAD EQ ISZERO PUSH2 0x1AF JUMPI PUSH1 0x40 MLOAD PUSH32 0x8C379A000000000000000000000000000000000000000000000000000000000 DUP2 MSTORE PUSH1 0x4 ADD DUP1 DUP1 PUSH1 0x20 ADD DUP3 DUP2 SUB DUP3 MSTORE PUSH1 0x16 DUP2 MSTORE PUSH1 0x20 ADD DUP1 PUSH32 0x7468697320697320776879206974207265766572747300000000000000000000 DUP2 MSTORE POP PUSH1 0x20 ADD SWAP2 POP POP PUSH1 0x40 MLOAD DUP1 SWAP2 SUB SWAP1 REVERT JUMPDEST PUSH1 0xA PUSH1 0x0 SLOAD EQ ISZERO PUSH2 0x1BC JUMPI INVALID JUMPDEST JUMP INVALID LOG2 PUSH6 0x627A7A723158 KECCAK256 0xC9 0xE8 LOG3 0x21 SHR 0xA9 MSTORE8 0x4C 0xF8 0xF 0xD5 SDIV 0x2D PUSH8 0x7C3908C97BD774A1 0xC6 PUSH28 0x677166391C127F9364736F6C63430005110032000000000000000000 "
				},
				"gasEstimates": {
					"creation": {
						"codeDepositCost": "99800",
						"executionCost": "147",
						"totalCost": "99947"
					},
					"external": {
						"foo()": "2622",
						"willThrow()": "236"
					}
				},
				"methodIdentifiers": {
					"foo()": "c2985578",
					"willThrow()": "18955b1e"
				}
			},
			"storageLayout": {
				"storage": [
					{
						"astId": 3,
						"contract": "Error-Handaling/error.sol:Myerror",
						"label": "a",
						"offset": 0,
						"slot": "0",
						"type": "t_uint256"
					}
				],
				"types": {
					"t_uint256": {
						"encoding": "inplace",
						"label": "uint256",
						"numberOfBytes": "32"
					}
				}
			},
			"userdoc": {
				"methods": {}
			}
		}
	}
}