{
	"data": {
		"bytecode": {
			"linkReferences": {},
			"object": "6080604052348015600f57600080fd5b5060d88061001e6000396000f3fe6080604052348015600f57600080fd5b506004361060285760003560e01c8063febb0f7e14602d575b600080fd5b60336035565b005b6040517f08c379a00000000000000000000000000000000000000000000000000000000081526004018080602001828103825260118152602001807f62637a206f7468657220726561736f6e7300000000000000000000000000000081525060200191505060405180910390fdfea265627a7a7231582046850cc3941edac740301c00609063cf5b79d80903565e75456d76f1db40ba2264736f6c63430005110032",
			"opcodes": "PUSH1 0x80 PUSH1 0x40 MSTORE CALLVALUE DUP1 ISZERO PUSH1 0xF JUMPI PUSH1 0x0 DUP1 REVERT JUMPDEST POP PUSH1 0xD8 DUP1 PUSH2 0x1E PUSH1 0x0 CODECOPY PUSH1 0x0 RETURN INVALID PUSH1 0x80 PUSH1 0x40 MSTORE CALLVALUE DUP1 ISZERO PUSH1 0xF JUMPI PUSH1 0x0 DUP1 REVERT JUMPDEST POP PUSH1 0x4 CALLDATASIZE LT PUSH1 0x28 JUMPI PUSH1 0x0 CALLDATALOAD PUSH1 0xE0 SHR DUP1 PUSH4 0xFEBB0F7E EQ PUSH1 0x2D JUMPI JUMPDEST PUSH1 0x0 DUP1 REVERT JUMPDEST PUSH1 0x33 PUSH1 0x35 JUMP JUMPDEST STOP JUMPDEST PUSH1 0x40 MLOAD PUSH32 0x8C379A000000000000000000000000000000000000000000000000000000000 DUP2 MSTORE PUSH1 0x4 ADD DUP1 DUP1 PUSH1 0x20 ADD DUP3 DUP2 SUB DUP3 MSTORE PUSH1 0x11 DUP2 MSTORE PUSH1 0x20 ADD DUP1 PUSH32 0x62637A206F7468657220726561736F6E73000000000000000000000000000000 DUP2 MSTORE POP PUSH1 0x20 ADD SWAP2 POP POP PUSH1 0x40 MLOAD DUP1 SWAP2 SUB SWAP1 REVERT INVALID LOG2 PUSH6 0x627A7A723158 KECCAK256 CHAINID DUP6 0xC 0xC3 SWAP5 0x1E 0xDA 0xC7 BLOCKHASH ADDRESS SHR STOP PUSH1 0x90 PUSH4 0xCF5B79D8 MULMOD SUB JUMP 0x5E PUSH22 0x456D76F1DB40BA2264736F6C63430005110032000000 "
		},
		"gasEstimates": {
			"creation": {
				"codeDepositCost": "43200",
				"executionCost": "93",
				"totalCost": "43293"
			},
			"external": {
				"bar()": "236"
			}
		},
		"methodIdentifiers": {
			"bar()": "febb0f7e"
		}
	},
	"abi": [
		{
			"constant": false,
			"inputs": [],
			"name": "bar",
			"outputs": [],
			"payable": false,
			"stateMutability": "nonpayable",
			"type": "function"
		}
	]
}