{
	"data": {
		"bytecode": {
			"linkReferences": {},
			"object": "608060405234801561001057600080fd5b5060b18061001f6000396000f3fe60806040526004361060265760003560e01c80632980a5d314602b578063e8b5e51f146053575b600080fd5b348015603657600080fd5b50603d605b565b6040518082815260200191505060405180910390f35b6059607a565b005b60003073ffffffffffffffffffffffffffffffffffffffff1631905090565b56fea265627a7a7231582083e335920a941f32a69b7b97a692245cd042fcde1437c2437bdf40bc7e758a6864736f6c634300050b0032",
			"opcodes": "PUSH1 0x80 PUSH1 0x40 MSTORE CALLVALUE DUP1 ISZERO PUSH2 0x10 JUMPI PUSH1 0x0 DUP1 REVERT JUMPDEST POP PUSH1 0xB1 DUP1 PUSH2 0x1F PUSH1 0x0 CODECOPY PUSH1 0x0 RETURN INVALID PUSH1 0x80 PUSH1 0x40 MSTORE PUSH1 0x4 CALLDATASIZE LT PUSH1 0x26 JUMPI PUSH1 0x0 CALLDATALOAD PUSH1 0xE0 SHR DUP1 PUSH4 0x2980A5D3 EQ PUSH1 0x2B JUMPI DUP1 PUSH4 0xE8B5E51F EQ PUSH1 0x53 JUMPI JUMPDEST PUSH1 0x0 DUP1 REVERT JUMPDEST CALLVALUE DUP1 ISZERO PUSH1 0x36 JUMPI PUSH1 0x0 DUP1 REVERT JUMPDEST POP PUSH1 0x3D PUSH1 0x5B JUMP JUMPDEST PUSH1 0x40 MLOAD DUP1 DUP3 DUP2 MSTORE PUSH1 0x20 ADD SWAP2 POP POP PUSH1 0x40 MLOAD DUP1 SWAP2 SUB SWAP1 RETURN JUMPDEST PUSH1 0x59 PUSH1 0x7A JUMP JUMPDEST STOP JUMPDEST PUSH1 0x0 ADDRESS PUSH20 0xFFFFFFFFFFFFFFFFFFFFFFFFFFFFFFFFFFFFFFFF AND BALANCE SWAP1 POP SWAP1 JUMP JUMPDEST JUMP INVALID LOG2 PUSH6 0x627A7A723158 KECCAK256 DUP4 0xe3 CALLDATALOAD SWAP3 EXP SWAP5 0x1f ORIGIN 0xa6 SWAP12 PUSH28 0x97A692245CD042FCDE1437C2437BDF40BC7E758A6864736F6C634300 SDIV SIGNEXTEND STOP ORIGIN "
		},
		"gasEstimates": {
			"creation": {
				"codeDepositCost": "35400",
				"executionCost": "87",
				"totalCost": "35487"
			},
			"external": {
				"balanceof()": "596",
				"invest()": "120"
			}
		},
		"methodIdentifiers": {
			"balanceof()": "2980a5d3",
			"invest()": "e8b5e51f"
		}
	},
	"abi": [
		{
			"constant": true,
			"inputs": [],
			"name": "balanceof",
			"outputs": [
				{
					"internalType": "uint256",
					"name": "",
					"type": "uint256"
				}
			],
			"payable": false,
			"stateMutability": "view",
			"type": "function"
		},
		{
			"constant": false,
			"inputs": [],
			"name": "invest",
			"outputs": [],
			"payable": true,
			"stateMutability": "payable",
			"type": "function"
		}
	]
}